:100000000C941E010C943F010C943F010C943F0191
:100010000C943F010C943F010C943F010C943F0160
:100020000C943F010C943F010C943F010C943F0150
:100030000C943F010C943F010C949F0B0C943F01D6
:100040000C943F010C943F010C943F010C943F0130
:100050000C943F010C943F010C943F010C943F0120
:100060000C943F010C943F010C943F010C943F0110
:100070000C943F010C943F010C943F010C943F0100
:100080000C943F010C943F010C943F010C943F01F0
:100090000C943F010C943F010C943F010C943F01E0
:1000A0000C943F010C943F010C943F010C943F01D0
:1000B0000C943F010C943F010C943F010C943F01C0
:1000C0000C943F010C943F010C943F010C943F01B0
:1000D0000C943F010C943F010C943F010C943F01A0
:1000E0000C943F010C943F010C943F010C943F0190
:1000F0000C943F010C943F010C943F010C943F0180
:100100000C943F010C943F010C943F010C943F016F
:100110000C943F010C943F010C943F010C943F015F
:100120000C943F010C943F010C943F010C943F014F
:100130000C943F010C943F010C943F010C943F013F
:100140000C943F010C943F010C943F010C943F012F
:100150000C943F010C943F010C943F010C943F011F
:100160000C943F010C943F010C943F010C943F010F
:100170000C943F010C943F010C943F010C943F01FF
:100180000C943F010C943F010C943F010C943F01EF
:100190000C943F010C943F010C943F010C943F01DF
:1001A0000C943F010C943F010C943F010C943F01CF
:1001B0000C943F010C943F010C943F010C943F01BF
:1001C0000C943F010C943F010C943F010C943F01AF
:1001D0000C943F010C943F010C943F010C943F019F
:1001E0000C943F010C943F010C943F010C943F018F
:1001F0000C943F010C943F010C943F010C94330488
:100200000C94D1010C94F5050C942C030C948B06E2
:100210000C94FA010C9493020C945F050C94F9026F
:100220000C94C6020C942D020C945F030C94C90428
:100230000C94C5030C9460020C94920311241FBE0D
:10024000CFEFCDBFDFE5DEBF00E00CBF10E2A0E0E6
:10025000B0E2E6E6FFE100E00BBF02C007900D92BE
:10026000A633B107D9F720E2A6E3B0E201C01D92A0
:10027000A934B207E1F70E944D0C0C94B10F0C9415
:100280000000CF93DF931F92CDB7DEB789838981BA
:10029000815089838981882F90E095958795857510
:1002A0009981292F281B822F89838981282F2373E5
:1002B0008981882F90E0959587959595879583738B
:1002C000820F0F90DF91CF9108950F931F93CF93DB
:1002D000DF93CDB7DEB780E696E020E636E0F901A1
:1002E0002081220FFC01208380E696E0FC019081B2
:1002F00081E0993008F480E0882329F080E696E0D8
:1003000021E0FC01208380E896E020E636E0F90158
:100310002081FC01248304E416E080E696E0FC01E1
:1003200080810E944101882F90E08E5F9F4DFC01EB
:100330008081F80180830000DF91CF911F910F91A0
:100340000895CF93DF931F92CDB7DEB7898380E8FE
:1003500096E0FC01208581E09981291709F080E071
:100360000F90DF91CF910895CF93DF93CDB7DEB794
:1003700080E896E0FC0180858F700E944101DF914A
:10038000CF910895CF93DF93CDB7DEB780E896E0A5
:10039000FC01808582958F700E944101DF91CF9191
:1003A0000895CF93DF9300D01F92CDB7DEB7898336
:1003B0009A836B837C838B819C81FC0180819181FA
:1003C000A281B38120E030E040E251E4BC01CD01E4
:1003D0000E94030FDC01CB012B813C81F90180835A
:1003E0009183A283B38300002496CDBFDEBFDF914B
:1003F000CF910895CF93DF9300D01F92CDB7DEB792
:1004000089839A836B837C838B819C81FC018081AF
:100410009181A281B38120E030E040E251E4BC014F
:10042000CD010E94030FDC01CB0120E030E040E869
:100430005FE3BC01CD010E94330DDC01CB012B81B8
:100440003C81F90180839183A283B38300002496C9
:10045000CDBFDEBFDF91CF910895CF93DF9300D062
:100460001F92CDB7DEB789839A836B837C838B81A0
:100470009C81FC0180819181A281B38120E030E0E8
:1004800040E251E4BC01CD010E94030FDC01CB012D
:1004900020E030E040E050E4BC01CD010E94330D8B
:1004A000DC01CB012B813C81F90180839183A28304
:1004B000B38300002496CDBFDEBFDF91CF910895B6
:1004C000CF93DF9300D01F92CDB7DEB789839A8395
:1004D0006B837C838B819C81FC0180819181A281D3
:1004E000B38120E030E040E251E4BC01CD010E9444
:1004F000030FDC01CB0120E030E040E450E4BC011C
:10050000CD010E94330DDC01CB012B813C81F9012F
:1005100080839183A283B38300002496CDBFDEBF86
:10052000DF91CF910895CF93DF9300D01F92CDB785
:10053000DEB789839A836B837C838B819C81FC01EA
:1005400080819181A281B38120E030E040E251E4DA
:10055000BC01CD010E94030FDC01CB0120E030E0A3
:1005600040E850E4BC01CD010E94330DDC01CB0119
:100570002B813C81F90180839183A283B3830000A6
:100580002496CDBFDEBFDF91CF910895CF93DF9347
:1005900000D01F92CDB7DEB789839A836B837C83AB
:1005A0008B819C81FC0180819181A281B38120E0BB
:1005B00030E040E251E4BC01CD010E94030FDC01B8
:1005C000CB0120E030E040EA50E4BC01CD010E94C4
:1005D000330DDC01CB012B813C81F90180839183B8
:1005E000A283B38300002496CDBFDEBFDF91CF91FD
:1005F0000895CF93DF9300D01F92CDB7DEB78983E4
:100600009A836B837C838B819C81FC0180819181A7
:10061000A281B38120E030E040E251E4BC01CD0191
:100620000E94030FDC01CB0120E030E040EC50E4FD
:10063000BC01CD010E94330DDC01CB012B813C813B
:10064000F90180839183A283B38300002496CDBFF8
:10065000DEBFDF91CF910895CF93DF9300D01F923B
:10066000CDB7DEB789839A836B837C838B819C8132
:10067000FC0180819181A281B38120E030E040E2E1
:1006800051E4BC01CD010E94030FDC01CB0120E04D
:1006900030E040EE50E4BC01CD010E94330DDC019E
:1006A000CB012B813C81F90180839183A283B383A9
:1006B00000002496CDBFDEBFDF91CF910895CF9388
:1006C000DF9300D01F92CDB7DEB789839A836B8307
:1006D0007C838B819C81FC0180819181A281B3818B
:1006E00020E030E040E251E4BC01CD010E94030F64
:1006F000DC01CB0120E030E040E051E4BC01CD0161
:100700000E94330DDC01CB012B813C81F9018083F8
:100710009183A283B38300002496CDBFDEBFDF9117
:10072000CF910895CF93DF9300D01F92CDB7DEB75E
:1007300089839A836B837C838B819C81FC0180817C
:100740009181A281B38120E030E040E251E4BC011C
:10075000CD010E94030FDC01CB0120E030E040E13D
:1007600051E4BC01CD010E94330DDC01CB012B8192
:100770003C81F90180839183A283B3830000249696
:10078000CDBFDEBFDF91CF910895CF93DF93CDB77B
:10079000DEB72897CDBFDEBF8D839E836F837887BA
:1007A0008D819E81FC0180818231C9F410923A20B2
:1007B000109243201092442010924520109246201F
:1007C00010923B2010923C2010923D2010923E202F
:1007D00081E0809301208D819E81FC0110828F81B8
:1007E0009885FC0180819181A281B381BC01CD01FA
:1007F0000E94160EDC01CB0189839A83AB83BC83F4
:1008000089819A81AB81BC81892B8A2B8B2B19F42E
:1008100081E08093012089819A81AB81BC812AE0AB
:1008200030E040E050E0BC01CD010E94700FDA01E1
:10083000C90189839A83AB83BC8369817A818B8167
:100840009C810E944E0EDC01CB012F813885F9017D
:1008500080839183A283B38300002896CDBFDEBF3F
:10086000DF91CF910895CF93DF93CDB7DEB7629735
:10087000CDBFDEBF8F87988B698B7A8B109201205A
:100880008F85988921E1FC0120838CE880930220E8
:1008900087EC8093032081EC8093042082E980938D
:1008A000052080E090E0A8E4B2E489839A83AB83DA
:1008B000BC8320E030E04AEF55E469817A818B8186
:1008C0009C810E94030FDC01CB018D839E83AF834B
:1008D000B88720E030E040E85FE36D817E818F8162
:1008E00098850E949F0D88232CF481E090E08987F1
:1008F0009A873EC020E03FEF4FE757E46D817E814D
:100900008F8198850E94FE0E181644F520E030E095
:1009100040E251E469817A818B819C810E94030FBE
:10092000DC01CB01BC01CD010E941D0EDC01CB011D
:1009300089879A8789859A85892B21F180E293E0BE
:100940008B879C878B859C850197F1F78B879C878C
:1009500089859A85019789879A87ECCF6D817E81F9
:100960008F8198850E941D0EDC01CB0189879A87B3
:1009700089859A858D879E878D859E850197F1F75C
:100980008D879E8700006296CDBFDEBFDF91CF913D
:100990000895CF93DF93CDB7DEB76297CDBFDEBFAB
:1009A0008F87988B698B7A8B109201208F8598891D
:1009B00021E2FC0120838FEF8093022082E9809363
:1009C000032081EC8093042083E88093052080E05D
:1009D00090E0A8E4B2E489839A83AB83BC8320E0EF
:1009E00030E04AEF55E469817A818B819C810E94D5
:1009F000030FDC01CB018D839E83AF83B88720E09A
:100A000030E040E85FE36D817E818F8198850E94B0
:100A10009F0D88232CF481E090E089879A873EC05F
:100A200020E03FEF4FE757E46D817E818F8198850D
:100A30000E94FE0E181644F520E030E040E251E43A
:100A400069817A818B819C810E94030FDC01CB013B
:100A5000BC01CD010E941D0EDC01CB0189879A8764
:100A600089859A85892B21F180E293E08B879C8789
:100A70008B859C850197F1F78B879C8789859A8563
:100A8000019789879A87ECCF6D817E818F819885C8
:100A90000E941D0EDC01CB0189879A8789859A8582
:100AA0008D879E878D859E850197F1F78D879E871F
:100AB00000006296CDBFDEBFDF91CF910895CF9346
:100AC000DF93CDB7DEB76297CDBFDEBF8F87988B40
:100AD000698B7A8B109201208F85988921E8FC011F
:100AE00020838FEF8093022081EA809303208BEF95
:100AF0008093042081EA8093052080E090E0A8E4C0
:100B0000B2E489839A83AB83BC8320E030E04AEF70
:100B100055E469817A818B819C810E94030FDC01FD
:100B2000CB018D839E83AF83B88720E030E040E81F
:100B30005FE36D817E818F8198850E949F0D882360
:100B40002CF481E090E089879A873EC020E03FEF57
:100B50004FE757E46D817E818F8198850E94FE0E5C
:100B6000181644F520E030E040E251E469817A81D2
:100B70008B819C810E94030FDC01CB01BC01CD0164
:100B80000E941D0EDC01CB0189879A8789859A8591
:100B9000892B21F180E293E08B879C878B859C8554
:100BA0000197F1F78B879C8789859A8501978987BB
:100BB0009A87ECCF6D817E818F8198850E941D0E72
:100BC000DC01CB0189879A8789859A858D879E87E5
:100BD0008D859E850197F1F78D879E87000062962F
:100BE000CDBFDEBFDF91CF910895CF93DF93CDB717
:100BF000DEB76297CDBFDEBF8F87988B698B7A8B0C
:100C0000109201208F85988921E4FC01208388ECD3
:100C10008093022088EC8093032081EC8093042051
:100C200087EC8093052080E090E0A8E4B2E489831B
:100C30009A83AB83BC8320E030E04AEF55E46981BE
:100C40007A818B819C810E94030FDC01CB018D8313
:100C50009E83AF83B88720E030E040E85FE36D819A
:100C60007E818F8198850E949F0D88232CF481E0DE
:100C700090E089879A873EC020E03FEF4FE757E436
:100C80006D817E818F8198850E94FE0E181644F535
:100C900020E030E040E251E469817A818B819C81DF
:100CA0000E94030FDC01CB01BC01CD010E941D0E8F
:100CB000DC01CB0189879A8789859A85892B21F167
:100CC00080E293E08B879C878B859C850197F1F769
:100CD0008B879C8789859A85019789879A87ECCF2E
:100CE0006D817E818F8198850E941D0EDC01CB0174
:100CF00089879A8789859A858D879E878D859E8528
:100D00000197F1F78D879E8700006296CDBFDEBF09
:100D1000DF91CF910895CF93DF93CDB7DEB7629780
:100D2000CDBFDEBF8F87988B698B7A8B81E08093F4
:100D300001208FEF8093022086E88093032088E9CA
:100D40008093042081EC8093052080E090E0A8E46B
:100D5000B2E489839A83AB83BC8320E030E04AEF1E
:100D600055E469817A818B819C810E94030FDC01AB
:100D7000CB018D839E83AF83B88720E030E040E8CD
:100D80005FE36D817E818F8198850E949F0D88230E
:100D90002CF481E090E089879A873EC020E03FEF05
:100DA0004FE757E46D817E818F8198850E94FE0E0A
:100DB000181644F520E030E040E251E469817A8180
:100DC0008B819C810E94030FDC01CB01BC01CD0112
:100DD0000E941D0EDC01CB0189879A8789859A853F
:100DE000892B21F180E293E08B879C878B859C8502
:100DF0000197F1F78B879C8789859A850197898769
:100E00009A87ECCF6D817E818F8198850E941D0E1F
:100E1000DC01CB0189879A8789859A858D879E8792
:100E20008D859E850197F1F78D879E878F8598899F
:100E3000FC018081882F90E08132910571F182322E
:100E400091051CF4419751F0AAC08134910509F431
:100E500043C08138910509F45EC0A1C080913B2058
:100E600090913C20A0913D20B0913E2020914320C4
:100E7000309144204091452050914620BC01CD0145
:100E80000E94330DDC01CB0180933B2090933C20EA
:100E9000A0933D20B0933E2082C080913B20909152
:100EA0003C20A0913D20B0913E20209143203091E4
:100EB00044204091452050914620BC01CD010E9424
:100EC000320DDC01CB0180933B2090933C20A0931A
:100ED0003D20B0933E2063C080913B2090913C2008
:100EE000A0913D20B0913E2020914320309144209C
:100EF0004091452050914620BC01CD010E94030F36
:100F0000DC01CB0180933B2090933C20A0933D20BB
:100F1000B0933E2044C08091432090914420A09102
:100F20004520B091462020E030E0A901BC01CD0170
:100F30000E949F0D8823A1F481E080933A201092B3
:100F40003B2010923C2010923D2010923E201092A7
:100F500043201092442010924520109246201EC03B
:100F600080913B2090913C20A0913D20B0913E206B
:100F700020914320309144204091452050914620BB
:100F8000BC01CD010E94A40DDC01CB0180933B206C
:100F900090933C20A0933D20B0933E2000008F858D
:100FA000988922E1FC012083109243201092442072
:100FB000109245201092462000006296CDBFDEBF01
:100FC000DF91CF910895CF93DF931F92CDB7DEB716
:100FD00089838981882F90E0855F9F4DFC01808106
:100FE0000F90DF91CF910895CF93DF93CDB7DEB708
:100FF0002597CDBFDEBF6A837B838C839D838A81E7
:101000009B81AC81BD81892B8A2B8B2B11F481E0D4
:1010100020C019828A819B81AC81BD81892B8A2B5A
:101020008B2BB1F08A819B81AC81BD812AE030E0BD
:1010300040E050E0BC01CD010E94700FDA01C9010F
:101040008A839B83AC83BD8389818F5F8983E2CF51
:1010500089812596CDBFDEBFDF91CF910895CF93D3
:10106000DF9300D01F92CDB7DEB769837A838B837D
:101070009C8389819A81AB81BC81BB233CF4B09570
:10108000A095909581959F4FAF4FBF4FBC01CD016B
:101090002496CDBFDEBFDF91CF910895CF93DF932C
:1010A00000D000D0CDB7DEB76A837B838C839D836D
:1010B0004E8381E089839E8189819817F1F08A812E
:1010C0009B81AC81BD81880F991FAA1FBB1F9C010A
:1010D000AD01220F331F441F551F220F331F441F22
:1010E000551F820F931FA41FB51F8A839B83AC8358
:1010F000BD8389818F5F8983DECF8E81882329F02C
:101100008A819B81AC81BD8104C081E090E0A0E038
:10111000B0E0BC01CD012696CDBFDEBFDF91CF91FF
:101120000895CF92DF92EF92FF920F931F93CF9388
:10113000DF93CDB7DEB72B97CDBFDEBF8FEF8093A8
:1011400002208FEF809303208FEF8093042080ECA8
:101150008093052080910120882309F492C2809118
:101160003A20882369F08FEF809302208BEF8093E1
:1011700003208BEA809304208EE880930520D2C25E
:1011800080913F2090914020A0914120B091422039
:10119000BC01CD010E94F407888780913B2090918B
:1011A0003C20A0913D20B0913E2020E030E0A901FC
:1011B000BC01CD010E949F0D88230CF041C18885A0
:1011C000843008F003C18091472090914820892BFA
:1011D00009F04FC01982998188859817D8F58981BF
:1011E000882F90E023E030E08901081B190BC090A4
:1011F0003F20D0904020E0904120F0904220498153
:101200006AE070E080E090E00E944E089B01AC0133
:10121000C701B6010E94700FDA01C9012AE030E06F
:1012200040E050E0BC01CD010E94700FDC01CB0119
:10123000BC01CD010E942F08DC01CB010E94E30715
:10124000282FC8018E5F9F4DFC01208389818F5F0D
:101250008983C1CF8885882F90E023E030E0A90101
:10126000481B590BCA018E5F9F4D2FEBFC01208359
:1012700059C21A829A8188859817E0F58885282FA7
:1012800030E08A81882F90E08901081B190BC090FB
:101290003F20D0904020E0904120F09042204A81B1
:1012A0006AE070E080E090E00E944E089B01AC0193
:1012B000C701B6010E94700FDA01C9012AE030E0CF
:1012C00040E050E0BC01CD010E94700FDC01CB0179
:1012D000BC01CD010E942F08DC01CB010E94E30775
:1012E000282FC8018E5F9F4DFC0120838A818F5F6C
:1012F0008A83C0CF8885882F90E02885222F30E010
:101300002E5F3F4DF90120812F778E5F9F4DFC01AD
:1013100020831B828B81282F30E08885882F90E0E6
:1013200044E050E0BA01681B790BCB01281739075C
:101330000CF048C08885282F30E08B81882F90E002
:10134000820F931F8C010F5F1F4F80914720909158
:1013500048206C01E12CF12C80914720909148208D
:10136000CC01A0E0B0E0BC01CD010E94F407982FB1
:101370008B81792F781B872F8150482F6AE070E08E
:1013800080E090E00E944E089B01AC01C701B601CD
:101390000E94700FDA01C9012AE030E040E050E01D
:1013A000BC01CD010E94700FDC01CB010E94E3075C
:1013B000282FC8018E5F9F4DFC0120838B818F5F9A
:1013C0008B83A8CF8FEB80930220ACC1888581509E
:1013D0000E94E3078093052086E880930420C09054
:1013E0003F20D0904020E0904120F090422088851E
:1013F0008150482F6AE070E080E090E00E944E0843
:101400009B01AC01C701B6010E94700FDA01C9014E
:101410002AE030E040E050E0BC01CD010E94700FB6
:10142000DC01CB01BC01CD010E942F08DC01CB0106
:101430000E94E307809303208FEB8093022072C108
:101440008885853008F0E9C0809147209091482038
:10145000892BD9F51C829C818885981708F062C178
:101460008C81882F90E023E030E08901081B190B64
:10147000C0903F20D0904020E0904120F09042204A
:101480004C816AE070E080E090E00E944E089B0191
:10149000AC01C701B6010E94700FDA01C9012AE050
:1014A00030E040E050E0BC01CD010E94700FDC0153
:1014B000CB010E94E307282FC8018E5F9F4DFC01DE
:1014C00020838C818F5F8C83C6CF1D829D81888510
:1014D0009817D0F58885282F30E08D81882F90E0EF
:1014E000A901481B590BCA018C0101501109C09078
:1014F0003F20D0904020E0904120F09042204D814C
:101500006AE070E080E090E00E944E089B01AC0130
:10151000C701B6010E94700FDA01C9012AE030E06C
:1015200040E050E0BC01CD010E94700FDC01CB0116
:101530000E94E307282FC8018E5F9F4DFC01208386
:101540008D818F5F8D83C2CF8885882F90E0019732
:101550002885222F30E0215031092E5F3F4DF901BF
:1015600020812F778E5F9F4DFC0120831E828E810C
:10157000282F30E08885882F90E044E050E0BA01C1
:10158000681B790BCB01281739070CF0CBC0888575
:10159000282F30E08E81882F90E08901080F191FD5
:1015A00080914720909148206C01E12CF12C809192
:1015B000472090914820CC01A0E0B0E0BC01CD01D3
:1015C0000E94F407982F8E81792F781B872F8150E6
:1015D000482F6AE070E080E090E00E944E089B0196
:1015E000AC01C701B6010E94700FDA01C9012AE0FF
:1015F00030E040E050E0BC01CD010E94700FDC0102
:10160000CB010E94E307282FC8018E5F9F4DFC018C
:1016100020838E818F5F8E83AACF888581500E9420
:10162000E3078093052086E880930420C0903F2044
:10163000D0904020E0904120F09042208885815059
:10164000482F6AE070E080E090E00E944E089B0125
:10165000AC01C701B6010E94700FDA01C9012AE08E
:1016600030E040E050E0BC01CD010E94700FDC0191
:10167000CB010E94E307809303208FEF8093022029
:1016800051C08091432090914420A0914520B09179
:101690004620BC01CD010E941D0EDC01CB018987D3
:1016A0009A8789859A85CC01A0E0B0E0BC01CD0184
:1016B0000E94F4078B871F829F818B85981790F576
:1016C0008F81882F90E023E030E08901081B190BFF
:1016D00089859A856C01E12CF12C4F816AE070E0DC
:1016E00080E090E00E944E089B01AC01C701B6016A
:1016F0000E94700FDA01C9012AE030E040E050E0BA
:10170000BC01CD010E94700FDC01CB010E94E307F8
:10171000282FC8018E5F9F4DFC0120838F818F5F32
:101720008F83CACF00002B96CDBFDEBFDF91CF9154
:101730001F910F91FF90EF90DF90CF9008951F922F
:101740000F9200903F000F92112400903B000F92E7
:101750002F933F934F935F936F937F938F939F93B9
:10176000AF93BF93EF93FF93CF93DF93CDB7DEB7E4
:101770000E9465010E94230D8823F1F080910020D2
:10178000882339F01092002081E080933620109257
:101790003720809137208F5F8093372080913720CA
:1017A000873428F081E08093002010923720109237
:1017B0003820109239202DC0809137208F5F809380
:1017C000372080913720873428F081E080930020F3
:1017D0001092372080913820909139200196809383
:1017E000382090933920809138209091392081348D
:1017F0009C4978F0109238201092392010923720AE
:1018000080E496E0FC01148280E896E028E0FC0188
:1018100024830000DF91CF91FF91EF91BF91AF91B1
:101820009F918F917F916F915F914F913F912F91F8
:101830000F9000923B000F9000923F000F901F907E
:101840001895CF93DF93CDB7DEB7F89480E098E09A
:1018500028E230E0FC0126A337A380E098E020E0F6
:1018600038E0F90120812660FC01208380E098E0C7
:1018700020E038E0F90126812160FC01268380EA1E
:1018800090E020EA30E0F90122812160FC0122830E
:1018900078940000DF91CF910895CF92DF92EF927C
:1018A000FF92CF93DF9300D0CDB7DEB780E696E00E
:1018B00021E0FC01208380E696E0FC01148280E8B0
:1018C00096E02FE0FC01208380E896E021E0FC0117
:1018D000248380E896E020E1FC01248B80E896E0F8
:1018E00020E1FC01258B80E896E020E1FC01268BBD
:1018F00080E896E020E1FC01278B80E496E02FEF62
:10190000FC0120830E94210C1B82809136208823B9
:10191000E1F30E94B40189830E94C2018A838A8113
:10192000843008F08DC08981843008F089C08091AE
:1019300001208823D1F08981282F30E08A81882FE7
:1019400090E0220F331F220F331F820F931F880F47
:10195000991F8B5E9F4DFC0120813181CE01039642
:101960006BE370E2F901199519C08981282F30E0E5
:101970008A81882F90E0220F331F220F331F820F9E
:10198000931F880F991F8B5E9F4DFC012081318131
:10199000CE01039663E470E2F901199510923620A6
:1019A00080913B2090913C20A0913D20B0913E2021
:1019B000BC01CD010E94160EDC01CB0180933F20BB
:1019C00090934020A0934120B0934220C0903B20B0
:1019D000D0903C20E0903D20F0903E2080913F2030
:1019E00090914020A0914120B0914220BC01CD01B6
:1019F0000E944E0EDC01CB019C01AD01C701B60176
:101A00000E94320DDC01CB0120E030E04AE754E4D3
:101A1000BC01CD010E94030FDC01CB01BC01CD0153
:101A20000E94160EDC01CB01BC01CD010E942F08E3
:101A3000DC01CB0180934720909348200E949108BD
:101A40001092362062CFCF93DF93CDB7DEB780E818
:101A500096E0FC01908581E0903108F480E0DF9110
:101A6000CF9108955058BB27AA270E944A0D0C9485
:101A7000C40E0E94B60E38F00E94BD0E20F039F45C
:101A80009F3F19F426F40C94B30E0EF4E095E7FB97
:101A90000C94AD0EE92F0E94D50E58F3BA176207C9
:101AA00073078407950720F079F4A6F50C94F70ED8
:101AB0000EF4E0950B2EBA2FA02D0B01B901900169
:101AC0000C01CA01A0011124FF27591B99F0593FAD
:101AD00050F4503E68F11A16F040A22F232F342FF5
:101AE0004427585FF3CF469537952795A795F04043
:101AF0005395C9F77EF41F16BA0B620B730B840B58
:101B0000BAF09150A1F0FF0FBB1F661F771F881F0F
:101B1000C2F70EC0BA0F621F731F841F48F4879567
:101B200077956795B795F7959E3F08F0B0CF939559
:101B3000880F08F09927EE0F9795879508950E94D2
:101B4000890E08F481E008950E94B80D0C94C40E2B
:101B50000E94BD0E58F00E94B60E40F029F45F3F7F
:101B600029F00C94AD0E51110C94F80E0C94B30E98
:101B70000E94D50E68F39923B1F3552391F3951B79
:101B8000550BBB27AA2762177307840738F09F5F9E
:101B90005F4F220F331F441FAA1FA9F335D00E2E0B
:101BA0003AF0E0E832D091505040E695001CCAF778
:101BB0002BD0FE2F29D0660F771F881FBB1F26173B
:101BC00037074807AB07B0E809F0BB0B802DBF0112
:101BD000FF2793585F4F3AF09E3F510578F00C94E1
:101BE000AD0E0C94F80E5F3FE4F3983ED4F3869567
:101BF00077956795B795F7959F5FC9F7880F911D02
:101C00009695879597F90895E1E0660F771F881FED
:101C1000BB1F621773078407BA0720F0621B730BA0
:101C2000840BBA0BEE1F88F7E09508950E941D0EF5
:101C30006894B1110C94F80E08950E94DD0E88F09E
:101C40009F5798F0B92F9927B751B0F0E1F0660F80
:101C5000771F881F991F1AF0BA95C9F714C0B130C1
:101C600091F00E94F70EB1E008950C94F70E672FE3
:101C7000782F8827B85F39F0B93FCCF386957795F0
:101C80006795B395D9F73EF49095809570956195D9
:101C90007F4F8F4F9F4F0895E89409C097FB3EF404
:101CA00090958095709561957F4F8F4F9F4F9923A9
:101CB000A9F0F92F96E9BB279395F6958795779527
:101CC0006795B795F111F8CFFAF4BB0F11F460FFE7
:101CD0001BC06F5F7F4F8F4F9F4F16C0882311F03F
:101CE00096E911C0772321F09EE8872F762F05C053
:101CF000662371F096E8862F70E060E02AF09A95EE
:101D0000660F771F881FDAF7880F9695879597F9E2
:101D10000895990F0008550FAA0BE0E8FEEF16167C
:101D20001706E807F907C0F012161306E407F507CF
:101D300098F0621B730B840B950B39F40A2661F043
:101D4000232B242B252B21F408950A2609F4A140E6
:101D5000A6958FEF811D811D089597F99F6780E8F3
:101D600070E060E008959FEF80EC089500240A94ED
:101D70001616170618060906089500240A94121666
:101D80001306140605060895092E0394000C11F499
:101D9000882352F0BB0F40F4BF2B11F460FF04C046
:101DA0006F5F7F4F8F4F9F4F089557FD9058440F9F
:101DB000551F59F05F3F71F04795880F97FB991FAA
:101DC00061F09F3F79F08795089512161306140667
:101DD000551FF2CF4695F1DF08C0161617061806F4
:101DE000991FF1CF86957105610508940895E894CF
:101DF000BB2766277727CB0197F908950E94890EA4
:101E000008F48FEF08950E94160F0C94C40E0E94E0
:101E1000B60E38F00E94BD0E20F0952311F00C9400
:101E2000AD0E0C94B30E11240C94F80E0E94D50E36
:101E300070F3959FC1F3950F50E0551F629FF0011D
:101E4000729FBB27F00DB11D639FAA27F00DB11D36
:101E5000AA1F649F6627B00DA11D661F829F2227BF
:101E6000B00DA11D621F739FB00DA11D621F839F46
:101E7000A00D611D221F749F3327A00D611D231F1C
:101E8000849F600D211D822F762F6A2F11249F576A
:101E900050409AF0F1F088234AF0EE0FFF1FBB1F6D
:101EA000661F771F881F91505040A9F79E3F51052C
:101EB00080F00C94AD0E0C94F80E5F3FE4F3983E66
:101EC000D4F3869577956795B795F795E7959F5FD6
:101ED000C1F7FE2B880F911D9695879597F9089568
:101EE000052E97FB1EF400940E94870F57FD07D024
:101EF0000E948F0F07FC03D04EF40C94870F50956F
:101F00004095309521953F4F4F4F5F4F08959095E5
:101F10008095709561957F4F8F4F9F4F0895A1E2F7
:101F20001A2EAA1BBB1BFD010DC0AA1FBB1FEE1F53
:101F3000FF1FA217B307E407F50720F0A21BB30B9E
:101F4000E40BF50B661F771F881F991F1A9469F71A
:101F500060957095809590959B01AC01BD01CF0176
:061F60000895F894FFCF84
:101F66000101FFFFFFC01846409C32C0F9A4B0999A
:101F76009282D880905F0592035F032C03F505F9E2
:101F860002C6029302C90460022D02FA0133048BD1
:061F960006D101C50300A5
:00000001FF
